{"abi":[{"type":"function","name":"authenticateVideo","inputs":[{"name":"videoHash","type":"string","internalType":"string"}],"outputs":[],"stateMutability":"nonpayable"},{"type":"function","name":"verifyVideo","inputs":[{"name":"videoHash","type":"string","internalType":"string"}],"outputs":[{"name":"creator","type":"address","internalType":"address"},{"name":"timestamp","type":"uint256","internalType":"uint256"}],"stateMutability":"view"},{"type":"event","name":"VideoAuthenticated","inputs":[{"name":"videoHash","type":"string","indexed":false,"internalType":"string"},{"name":"creator","type":"address","indexed":true,"internalType":"address"},{"name":"timestamp","type":"uint256","indexed":false,"internalType":"uint256"}],"anonymous":false}],"bytecode":{"object":"0x608060405234801561000f575f80fd5b506103658061001d5f395ff3fe608060405234801561000f575f80fd5b5060043610610034575f3560e01c8063bfbfebff14610038578063e7d950a51461006e575b5f80fd5b61004b61004636600461027d565b610083565b604080516001600160a01b03909316835260208301919091520160405180910390f35b61008161007c36600461027d565b61013c565b005b5f805f84846040516100969291906102e9565b9081526020016040518091039020600101545f036100ef5760405162461bcd60e51b8152602060048201526011602482015270139bdd08185d5d1a195b9d1a58d85d1959607a1b60448201526064015b60405180910390fd5b5f8085856040516101019291906102e9565b908152604080516020928190038301812081830190925281546001600160a01b03168082526001909201549201829052969095509350505050565b806101785760405162461bcd60e51b815260206004820152600c60248201526b092dcecc2d8d2c840d0c2e6d60a31b60448201526064016100e6565b5f82826040516101899291906102e9565b9081526020016040518091039020600101545f146101e15760405162461bcd60e51b8152602060048201526015602482015274105b1c9958591e48185d5d1a195b9d1a58d85d1959605a1b60448201526064016100e6565b60408051808201825233815242602082015290515f9061020490859085906102e9565b90815260405160209181900382018120835181546001600160a01b0319166001600160a01b03909116178155929091015160019092019190915533907f10948c1e1966d4ad050357a51e7c56fedc1f4e9762b15473a30b1e83d57a292d90610271908590859042906102f8565b60405180910390a25050565b5f806020838503121561028e575f80fd5b823567ffffffffffffffff808211156102a5575f80fd5b818501915085601f8301126102b8575f80fd5b8135818111156102c6575f80fd5b8660208285010111156102d7575f80fd5b60209290920196919550909350505050565b818382375f9101908152919050565b60408152826040820152828460608301375f606084830101525f6060601f19601f860116830101905082602083015294935050505056fea26469706673582212206b7d285dc7deb709c0daced412b778a504c9d0bb01ac692d38a937db040cbdfa64736f6c63430008140033","linkReferences":{}},"methodIdentifiers":{"authenticateVideo(string)":"e7d950a5","verifyVideo(string)":"bfbfebff"},"id":0}