{"abi":[{"type":"function","name":"authenticateVideo","inputs":[{"name":"videoHash","type":"string","internalType":"string"}],"outputs":[],"stateMutability":"nonpayable"},{"type":"function","name":"verifyVideo","inputs":[{"name":"videoHash","type":"string","internalType":"string"}],"outputs":[{"name":"creator","type":"address","internalType":"address"},{"name":"timestamp","type":"uint256","internalType":"uint256"}],"stateMutability":"view"},{"type":"event","name":"VideoAuthenticated","inputs":[{"name":"videoHash","type":"string","indexed":false,"internalType":"string"},{"name":"creator","type":"address","indexed":true,"internalType":"address"},{"name":"timestamp","type":"uint256","indexed":false,"internalType":"uint256"}],"anonymous":false}],"bytecode":{"object":"0x6080604052348015600e575f5ffd5b506106958061001c5f395ff3fe608060405234801561000f575f5ffd5b5060043610610034575f3560e01c8063bfbfebff14610038578063e7d950a514610069575b5f5ffd5b610052600480360381019061004d919061038e565b610085565b604051610060929190610430565b60405180910390f35b610083600480360381019061007e919061038e565b61018b565b005b5f5f5f5f8585604051610099929190610493565b908152602001604051809103902060010154036100eb576040517f08c379a00000000000000000000000000000000000000000000000000000000081526004016100e290610505565b60405180910390fd5b5f5f85856040516100fd929190610493565b90815260200160405180910390206040518060400160405290815f82015f9054906101000a900473ffffffffffffffffffffffffffffffffffffffff1673ffffffffffffffffffffffffffffffffffffffff1673ffffffffffffffffffffffffffffffffffffffff1681526020016001820154815250509050805f0151816020015192509250509250929050565b5f82829050116101d0576040517f08c379a00000000000000000000000000000000000000000000000000000000081526004016101c79061056d565b60405180910390fd5b5f5f83836040516101e2929190610493565b90815260200160405180910390206001015414610234576040517f08c379a000000000000000000000000000000000000000000000000000000000815260040161022b906105d5565b60405180910390fd5b60405180604001604052803373ffffffffffffffffffffffffffffffffffffffff168152602001428152505f8383604051610270929190610493565b90815260200160405180910390205f820151815f015f6101000a81548173ffffffffffffffffffffffffffffffffffffffff021916908373ffffffffffffffffffffffffffffffffffffffff160217905550602082015181600101559050503373ffffffffffffffffffffffffffffffffffffffff167f10948c1e1966d4ad050357a51e7c56fedc1f4e9762b15473a30b1e83d57a292d8383426040516103199392919061062f565b60405180910390a25050565b5f5ffd5b5f5ffd5b5f5ffd5b5f5ffd5b5f5ffd5b5f5f83601f84011261034e5761034d61032d565b5b8235905067ffffffffffffffff81111561036b5761036a610331565b5b60208301915083600182028301111561038757610386610335565b5b9250929050565b5f5f602083850312156103a4576103a3610325565b5b5f83013567ffffffffffffffff8111156103c1576103c0610329565b5b6103cd85828601610339565b92509250509250929050565b5f73ffffffffffffffffffffffffffffffffffffffff82169050919050565b5f610402826103d9565b9050919050565b610412816103f8565b82525050565b5f819050919050565b61042a81610418565b82525050565b5f6040820190506104435f830185610409565b6104506020830184610421565b9392505050565b5f81905092915050565b828183375f83830152505050565b5f61047a8385610457565b9350610487838584610461565b82840190509392505050565b5f61049f82848661046f565b91508190509392505050565b5f82825260208201905092915050565b7f4e6f742061757468656e746963617465640000000000000000000000000000005f82015250565b5f6104ef6011836104ab565b91506104fa826104bb565b602082019050919050565b5f6020820190508181035f83015261051c816104e3565b9050919050565b7f496e76616c6964206861736800000000000000000000000000000000000000005f82015250565b5f610557600c836104ab565b915061056282610523565b602082019050919050565b5f6020820190508181035f8301526105848161054b565b9050919050565b7f416c72656164792061757468656e7469636174656400000000000000000000005f82015250565b5f6105bf6015836104ab565b91506105ca8261058b565b602082019050919050565b5f6020820190508181035f8301526105ec816105b3565b9050919050565b5f601f19601f8301169050919050565b5f61060e83856104ab565b935061061b838584610461565b610624836105f3565b840190509392505050565b5f6040820190508181035f830152610648818587610603565b90506106576020830184610421565b94935050505056fea2646970667358221220860bd99e042b1b9e6e02d8aa13500a82a19c8407a40ddaac29241174243c16d764736f6c63430008210033","linkReferences":{}},"methodIdentifiers":{"authenticateVideo(string)":"e7d950a5","verifyVideo(string)":"bfbfebff"},"id":0}